:1000000042C700005DC700005AC7000058C7000083
:1000100056C700005BC7000052C7000050C7000071
:100020004EC7000059C700004AC7000048C700007B
:1000300046C7000044C7000042C7000040C7000098
:100040000C94880A3CC700000C947C0938C7000057
:100050000C94AC0934C7000032C7000030C7000060
:100060000C94F0322CC7000008000000BE92244916
:10007000123EABAAAA2ABECDCCCC4C3E00000080DA
:10008000BEABAAAAAA3E00000000BF000000803F4D
:100090000000000000084178D3BB4387D1133D190D
:1000A0000E3CC3BD4282AD2B3E68EC8276BED98F3A
:1000B000E1A93E4C80EFFFBE01C4FF7F3F0000007E
:1000C00000000D0A20202020434847204F434420B1
:1000D0006572726F72733A20000D0A202020434827
:1000E000472054454D50206572726F72733A20005C
:1000F0000D0A4449534348472054454D50206572EA
:10010000726F72733A20000D0A2020204F43442062
:100110006572726F72733A20000D0A2020205343DB
:1001200044206572726F72733A20000D0A202020FD
:100130004F5650206572726F72733A20000D0A207C
:100140002020555650206572726F72733A20000D50
:100150000A20414C455254206572726F72733A20E6
:10016000000D0A585245414459206572726F7273EE
:100170003A2000207C2044656C74613A2000207C89
:10018000204D61783A2000207C204176673A20009B
:100190000D0A43656C6C206D563A204D696E3A200D
:1001A000000D0A43656C6C20766F6C746167657333
:1001B0003A0D0A002042616C616E63696E672073BC
:1001C00074617475733A2000534F433A20002072D3
:1001D0006177290D0A00206D412028002072617787
:1001E000292C2063757272656E743A2000206D565A
:1001F00020280042415420566F6C746167653A2094
:1002000000204241542054656D703A2000424D5305
:1002100020757074696D653A2000556E6B6E6F774E
:100220006E20636F6D6D616E642E2054727920278D
:1002300068656C702700417661696C61626C65204D
:10024000636F6D6D616E64733A0D0A0020467265CE
:10025000652052414D3A00446966666572656E6379
:100260006520746F6F20626967210D0A004F766503
:100270007263757272656E7420436861726765207F
:1002800050726F74656374696F6E210D0A00536854
:100290006F727420436972637569742050726F7451
:1002A000656374696F6E210D0A00556E6465727620
:1002B0006F6C74616765210D0A004F766572766F09
:1002C0006C74616765210D0A00626164206372636A
:1002D0002C20726573746F726520646566730043C9
:1002E0006F6E66206C6F61642000626164206372CF
:1002F000632C20726573746F7265207A65726F006B
:100300005374617473206C6F6164200054656D7068
:10031000657261747572657320783130433A2000DC
:1003200043656C6C20566F6C74616765733A0D0A97
:10033000000D0A43656C6C204944204D61703A0DF4
:100340000A000D0A202020205553525F4348475F82
:100350004F4344203D20000D0A2020205553525F7A
:100360004348475F54454D50203D20000D0A5553EA
:10037000525F4449534348475F54454D50203D2008
:10038000000D0A20202020205553525F5357495416
:100390004348203D20000D0A2020204F4344203DAB
:1003A00020000D0A202020534344203D20000D0A48
:1003B0002020204F5650203D20000D0A202020559F
:1003C0005650203D20000D0A20414C455254203DFE
:1003D00020000D0A585245414459203D20000D0A85
:1003E0004572726F727320636F756E7465723A0036
:1003F00020736176656420696E20454550524F4DEB
:100400003D00206368617267653D000D0A54696DA7
:10041000657374616D702069646C653D00206D5674
:100420006D61783D000D0A4C6F6F6B2043656C6CFD
:10043000206D566D696E3D0020436861726765648A
:100440002074696D65733D000D0A42415420437963
:10045000636C65733D00204F66667365743D0041B3
:100460004443204761696E3D002074696D65737473
:10047000616D70203D200073746174732073617628
:10048000656400206279652E2E2E6279652E2E2EEF
:100490000073687574646F776E00207072696E7493
:1004A000207265677320696E204251373639783083
:1004B0000062717265677300207468697320276831
:1004C000656C70270068656C700020454550524F80
:1004D0004D2028666F72636564206C6F61642064D0
:1004E00065667320696E206E65787420626F6F7424
:1004F0002900666F726D6174002073686F772066E3
:10050000726565206D656D6F7279006D656D002097
:100510006A756D7020746F20626F6F746C6F6164A8
:10052000657200626F6F746C6F6164657200207237
:100530006573657420776974682077617463686493
:100540006F6700726573657400207072696E742045
:10055000737461747573007072696E7400206375D2
:100560007272656E7420636F6E6620746F204545ED
:1005700050524F4D007361766500206C6F616420AE
:10058000736176656420636F6E662066726F6D209E
:10059000454550524F4D00726573746F726500751A
:1005A0006E646572766F6C74616765736563002055
:1005B0006D562C206C696D697420666F72206365BE
:1005C0006C6C2028323835302900756E646572767F
:1005D0006F6C746167656D7600207365632C2074A1
:1005E0007269676765722077696E646F7720283259
:1005F00029006F766572766F6C74616765736563E9
:1006000000206D562C206C696D697420666F722015
:1006100063656C6C20283432303029006F76657247
:10062000766F6C746167656D7600206D732C207435
:100630007269676765722077696E646F7720283208
:1006400030303029006469736368617267656D7367
:1006500000206D412C206D617820646973636861AE
:100660007267652028343030303029006469736344
:1006700068617267656D61002075732C2074726902
:10068000676765722077696E646F77202832303033
:10069000290073686F727463697263756974757326
:1006A00000206D412C207472696767657220637544
:1006B0007272656E742028383030303029007368CB
:1006C0006F7274636972637569746D6100206D7314
:1006D0002C206F76657263757272656E742070720D
:1006E0006F746563742064656C61792028333030E1
:1006F0003029006D61786368617267656375727235
:10070000656E7464656C617900206D412C206D61AB
:1007100078206368617267652028353030302900A1
:100720006D617863686172676563757272656E7416
:1007300000207365632C206D696E2076616C756591
:10074000202831383030290062616C616E63696E37
:100750006769646C6574696D6500206D562C206D49
:10076000617820666F722062616C616E63696E678A
:1007700020283130290062616C616E63696E676D9B
:1007800061786469666600206D562C206D696E2064
:10079000666F722062616C616E63696E67202833D8
:1007A000363030290062616C616E63696E676D6915
:1007B0006E6D7600206F6E20283129206F72206FB9
:1007C000666620283029006175746F62616C616E05
:1007D00063696E6700206F6E20283129206F7220B8
:1007E0006F666620283029206F6E2063686172670B
:1007F000696E670062616C616E63656368617267F0
:10080000696E670063656C6C74656D7064697363B1
:1008100068617267656D61780063656C6C74656DA5
:10082000706469736368617267656D696E00202822
:1008300030292C20783130206D756C7469706C65AE
:10084000642C2061626F76652063656C6C74656DE5
:10085000706368617267656D696E0063656C6C7466
:10086000656D706368617267656D6178002028301E
:10087000292C20783130206D756C7469706C65643A
:100880002C206C6573732063656C6C74656D70638C
:1008900068617267656D61780063656C6C74656D25
:1008A000706368617267656D696E00206D412C2010
:1008B000666F72206D61726B696E67202749444CC8
:1008C00045272C2033302D3530300069646C65634A
:1008D000757272656E74746800206D612A682C20D0
:1008E0006361706163697479206F662062617474FA
:1008F000657279207061636B2C206D61782E2035D4
:100900003830204168006E6F6D696E616C63617094
:10091000616369747900206D5620283432303029A3
:100920000063656C6C66756C6C6D7600206D56208E
:100930002833363030290063656C6C6E6F6D696EDC
:10094000616C6D7600202833343335292028333408
:1009500033352920283334333529202F2053656D32
:10096000697465632031303341542D3500746865F6
:10097000726D6973746F7262657461002028313022
:10098000303029203D20316D4F686D007368756EE1
:10099000747265736973746F7200203C313E203C41
:1009A000313E203C313E202D20656E61626C652019
:1009B00033206F66203300746865726D6973746FDD
:1009C000727300206F6E20283129206F72206F66AD
:1009D0006620283029206465627567206576656E1B
:1009E0007473206F6E20425137363978300062714F
:1009F00064626700206F6E20283129206F72206F9B
:100A000066662028302920616C6C6F7720646973DA
:100A10006368617267696E670064697363686172B5
:100A200067696E6700206F6E20283129206F722061
:100A30006F66662028302920616C6C6F77206368B0
:100A4000617267696E67006368617267696E6700EB
:100A5000207072696E742073746174697374696351
:100A600073007374617473736176650020736176CB
:100A7000652073746174697374696373007374615E
:100A800074737072696E7400207072696E74206184
:100A90006C6C20636F6E6600636F6E667072696E59
:100AA000740056657273696F6E20302E3120416C70
:100AB0007068612E205553494E47204954204953B0
:100AC00020594F5552205249534B21005749544801
:100AD0004F55542057415252414E54494553204F8F
:100AE0005220434F4E444954494F4E53204F4620C5
:100AF000414E59204B494E4421006E6F74333635B8
:100B000020636F6E736F6C65206170702C20436F73
:100B10007079726967687420286329203230323214
:100B200020536572676579204B6F7374616E6F79BE
:100B30002C2068747470733A2F2F61726475696E1B
:100B40006F2E756E6F000D0A30783241204241548D
:100B50005F48495F4C4F3A20000D0A30783332200D
:100B60002043435F48495F4C4F3A20000D0A3078DC
:100B700030422020202043435F4346473A20000D67
:100B80000A3078304120202055565F545249503A5F
:100B900020000D0A307830392020204F565F545203
:100BA00049503A20000D0A30783038202050524FFA
:100BB00054454354333A20000D0A30783037202012
:100BC00050524F54454354323A20000D0A30783089
:100BD00036202050524F54454354313A20000D0ADC
:100BE00030783035205359535F4354524C323A20B9
:100BF000000D0A30783034205359535F4354524C1F
:100C0000313A20000D0A30783031202043454C4CD9
:100C100042414C313A20000D0A30783030202053C8
:100C200059535F535441543A20000D0A44495343E9
:100C30004847204449533A20000D0A2020204348C9
:100C400047204449533A20000D0A204144434F466F
:100C5000465345543A20000D0A2020204144434782
:100C600041494E3A20002C20766F6C746167653ADA
:100C700020004E756D43656C6C733A2000436C65C3
:100C80006172696E6720526567697374657220438B
:100C9000454C4C42414C2000207265676973746575
:100CA0007220746F3A200053657474696E67204334
:100CB000454C4C42414C200044697361626C696E42
:100CC0006720444953434847204645540D0A004590
:100CD0006E61626C696E6720444953434847204601
:100CE00045540D0A0044697361626C696E67204364
:100CF0004847204645540D0A00456E61626C696E96
:100D00006720434847204645540D0A0041747465E6
:100D10006D707420636C656172206F7665726375A7
:100D20007272656E742063686172676520657272A5
:100D3000210D0A00417474656D707420636C6561E7
:100D4000722073686F7274206369726375697420AE
:100D5000657272210D0A00417474656D70742063B0
:100D60006C656172206F76657220766F6C74616756
:100D70006520657272210D0A00417474656D70748E
:100D800020636C65617220756E64657220766F6C8D
:100D90007461676520657272210D0A004174746583
:100DA0006D707420636C65617220414C4552542013
:100DB000657272210D0A00417474656D7074696EFC
:100DC0006720746F20636C656172205852454144FE
:100DD00059206572726F720D0A0062713736397868
:100DE00030204552524F523A204F43440D0A006280
:100DF000713736397830204552524F523A2053439A
:100E0000440D0A0062713736397830204552524F0E
:100E1000523A204F56500D0A0062713736397830F9
:100E2000204552524F523A205556500D0A006271D9
:100E30003736397830204552524F523A20414C458E
:100E400052540D0A006271373639783020455252BB
:100E50004F523A205852454144590D0A00627137A9
:100E6000363978303A2043432072656164790D0A3F
:100E700000627137363978302043464720657272F8
:100E80006F72210D0A0011241FBECFEFD8E0DEBF24
:100E9000CDBF11E0A0E0B1E0ECE1F7E702C00590C2
:100EA0000D92A037B107D9F722E0A0E7B1E001C069
:100EB0001D92A13AB207E1F73DD00C946C3BA0C85B
:100EC0008F9381E0809373018F9118958F9381E0C8
:100ED000809372018F9118958F938FB78F939F9303
:100EE00080917001909171010196909371018093AE
:100EF00070019F918F918FBF8F91189583E08093A0
:100F0000690081E08DBB0895EDE6F0E080818160AD
:100F10008083E8E6F0E08081846080830895E8E6DD
:100F2000F0E080818B7F8083EDE6F0E080818E7F32
:100F300080830895CDB7DEB7CD50D2400FB6F89478
:100F4000DEBF0FBECDBF14BEBED1789422E040E21A
:100F500063E270E0CE01895F9D4F5FD361E0CE0117
:100F6000895F9D4F72D35AD2182F092FCE01019657
:100F70000E943A2080916400816080936400809197
:100F80006400846080936400809164008860809332
:100F9000640080916400806880936400AFDF2FE775
:100FA00039EA43E0215030404040E1F700C0000002
:100FB00060E0CE01895F9D4F48D35FE785EF90E207
:100FC000515080409040E1F700C0000088E069D1B6
:100FD000CE0101960E94E11DC12CD12C760187E043
:100FE000682E77247394812F902F2FD2882309F4B1
:100FF00042C101D36B017C01FED2C65FDD4F688325
:1010000079838A839B83CA50D240DC01CB018C193F
:101010009D09AE09BF0980369A4EA105B10508F4B5
:1010200028C18091C100877E8093C100F89483B766
:10103000817F866083BF1092B0006092B1001092F1
:10104000B2007092700060DF4AD183B7816083BFC5
:1010500078941092730110927201889580917301B7
:1010600081110AC080917201811106C080917001C6
:1010700090917101449788F383B78E7F83BF4FDFD0
:101080008091C10088618093C1001092B1001092DC
:10109000700080907001909071018091B200282FB3
:1010A00030E050E040E0C65FDD4F288339834A835B
:1010B0005B83CA50D240CA01B9010E94A9372BE70D
:1010C00034E14EEA51E4C65FDD4F6883CA50D24036
:1010D000C55FDD4F7883CB50D240C45FDD4F88833E
:1010E000CC50D240C35FDD4F9883CD50D240C65F15
:1010F000DD4F688179818A819B81CA50D2400E94EC
:10110000A23820E030E04FE753E4C65FDD4F68834C
:10111000CA50D240C55FDD4F7883CB50D240C45F08
:10112000DD4F8883CC50D240C35FDD4F9883CD50D4
:10113000D240C65FDD4F688179818A819B81CA5028
:10114000D2400E940E372B015C01C401B0E0A0E048
:10115000C65FDD4F88839983AA83BB83CA50D24080
:10116000B401CD010E94A7372BE734E14EEA51E4E8
:10117000C65FDD4F6883CA50D240C55FDD4F7883BC
:10118000CB50D240C45FDD4F8883CC50D240C35F88
:10119000DD4F9883CD50D240C65FDD4F68817981A5
:1011A0008A819B81CA50D2400E94A2389B01AC0127
:1011B000C65FDD4F4882CA50D240C55FDD4F5882BE
:1011C000CB50D240C45FDD4FA882CC50D240C35F29
:1011D000DD4FB882CD50D240C65FDD4F6881798146
:1011E0008A819B81CA50D2400E94A6361B012C01E5
:1011F00002D24B015C01C65FDD4F2882CA50D2404B
:10120000C55FDD4F3882CB50D240C45FDD4F48828E
:10121000CC50D240C35FDD4F5882CD50D240C65F24
:10122000DD4F688179818A819B81CA50D2400E94BA
:101230007B379B01AC01280D391D4A1D5B1DC65F24
:10124000DD4F288339834A835B83CA50D240CA0169
:10125000B90193D1109271011092700180917201C5
:10126000882319F0C8D16B017C0110927201709231
:10127000730135D0B8CE20917301C95FDD4F48812D
:1012800059816A81C750D240CE0101960E94861EC4
:101290008111AFCECE0101960E943F1B8111A9CED4
:1012A000ABCE94E0899F9001112420728770282B87
:1012B000286088E10FB6F894A895809360000FBE6F
:1012C0002093600008950FB6F894A895809160006F
:1012D000886180936000109260000FBE0895A89509
:1012E000089588E198E00FB6F894A895809360007F
:1012F0000FBE90936000FFCF2F932FB72F938F9344
:101300009F93EF93FF939091C000892F847092FF79
:101310000AC08091C600FF91EF919F918F912F910C
:101320002FBF2F91189591E0909381029091C60064
:10133000209100022F3718F4809100028F5F2091D6
:10134000FF01281741F3E0910002F0E0EF5FFD4F4D
:10135000908380930002DFCF1F921FB61F9211244B
:101360008F939F93EF93FF9390917E0180917D01E6
:10137000981781F0E0917D01F0E0E158FE4F9081F7
:1013800080917D018F5F80937D0187FD10927D01AB
:101390009093C600FF91EF919F918F911F901FBE78
:1013A0001F901895CF92DF92EF92FF92CF936A0130
:1013B0007B01C22F109200021092FF0110927E0159
:1013C00010927D0160EC76EC8DE290E0A701960131
:1013D0000E942836BA01A9014150510961097109D9
:1013E000769567955795479582E08093C000852F45
:1013F00099278093C5004093C400E1ECF0E080ECB5
:101400008083808188618083C093C20010928102B2
:10141000CF91FF90EF90DF90CF900895809174016D
:10142000811110C084E791E023D1892B59F026E087
:1014300040E052EC61E070E08CE791E0B3DF84E7DC
:1014400091E01FD18CE791E0089580918102811194
:10145000109281020895909100028091FF019817E7
:1014600081F0E091FF01F0E0EF5FFD4F808190910E
:10147000FF019F5F9093FF0197FF04C01092FF014F
:1014800008958FEF0895809100022091FF0190E070
:1014900080589F4F821B91098F77992708958091DB
:1014A0007E018F3798F580917E018F5F282F30E085
:1014B0002F5F3F4F90917D0192171306D9F39091C2
:1014C0007D01981741F0E0917E01F0E0E158FE4F78
:1014D000608380937E018091C00085FFFCCF909156
:1014E0007E0180917D01981781F0E0917D01F0E00F
:1014F000E158FE4F908180917D018F5F80937D0147
:1015000087FD10927D019093C600089580E0CECFB4
:101510001F921FB61F9211242F933F938F939F9377
:10152000AF93BF9380918C0290918D02A0918E0217
:10153000B0918F0230918B022DE2230F2D37B8F43A
:101540000196A11DB11D20938B0280938C02909374
:101550008D02A0938E02B0938F02BF91AF919F91A5
:101560008F913F912F911F901FBE1F90189520EBD8
:10157000230F0296A11DB11DE6CF462F572FBC01A8
:101580008FB7F89440938C0250938D0260938E0233
:1015900070938F028FBF78940895789484B5836098
:1015A00084BD85B5836085BDEEE6F0E08081816015
:1015B00080830895CF93DF9300D000D0CDB7DEB7FE
:1015C0008FB7F89420918C0230918D0240918E0259
:1015D00050918F0229833A834B835C838FBF789429
:1015E00069817A818B819C810F900F900F900F9071
:1015F000DF91CF9108958091820281110BC082E822
:1016000092E036D0892B31F08AE892E0C6DF82E89A
:1016100092E037D08AE892E0CDCFDC01FB01119651
:101620007C936E9312964C939181842F809589239D
:101630008183223021F48181482B41830895213018
:1016400019F48281482B42830895FC01A081B18165
:10165000928112968C911297662329F0982B1296FC
:101660009C93CF01089590959823F9CF0C94D83985
:10167000FC0181E090E02081222311F090E080E0E5
:10168000089521E0FC0120830895FFCF845C9E4FE4
:101690000C94063218DEF89414BC1092800010925C
:1016A000B00014BEE0E0FFE309940F931F93CF93C3
:1016B000DF93EC0110E000E06FEFC8010E945E3B99
:1016C0006EE288819981EBDE0ADE0F5F1F4F011504
:1016D00084E0180789F766E071E0CE010296DF9199
:1016E000CF911F910F910C94F733EF92FF920F93CC
:1016F0001F93CF93DF93D82FC92F8B017A0160E21C
:101700000E94EA3360E00E94DE33B8010E94F733A2
:10171000C8010E94A43A182F183138F460E28D2FC6
:101720009C2F0E94EA331F5FF7CF60E08D2F9C2F24
:101730000E94DE33B7010E94F73366E071E0DF916B
:10174000CF911F910F91FF90EF900C94F733CF93AF
:10175000DF93EC01229660E0CE010E94DE3366E367
:1017600072E00E94F73366E071E00E94F73348E8C8
:101770005AE068E97AE0CE01B8DF4CE65AE06DE75E
:101780007AE0CE01B2DF40E55AE062E67AE0CE01CF
:10179000ACDF4AE755E067E975E0CE01A6DF4DE52D
:1017A00055E065E775E0CE01A0DF4AE954E061EB62
:1017B00074E0CE019ADF49E455E067E575E0CE01BB
:1017C00094DF4EE255E063E475E0CE018EDF4FE03A
:1017D00055E063E275E0CE0188DF49EF54E06BE04D
:1017E00075E0CE0182DF4AEC54E062EF74E0CE0196
:1017F0007CDF48EB54E065EC74E0CE0176DF43E833
:1018000054E061E974E0CE0170DF45E25AE067E43C
:101810007AE0CE016ADF44EF59E069E17AE0CE0177
:1018200064DF43EC59E06EEE79E0CE015EDF4AE919
:1018300059E067EB79E0CE0158DF4CE759E06CE8FE
:1018400079E0CE0152DF45E459E06DE679E0CE0162
:101850004CDF4CE259E067E379E0CE0146DF46E138
:1018600059E061E279E0CE0140DF49ED58E066E001
:1018700079E0CE013ADF4BEA58E06BEC78E0CE013C
:1018800034DF4DE658E069E978E0CE012EDF4EE224
:1018900058E06BE578E0CE0128DF4DE658E069E1DD
:1018A00078E0CE0122DF4EE258E064E078E0CE013D
:1018B0001CDF45ED57E064EF77E0CE0116DF44EB27
:1018C00057E067EC77E0CE0110DF47E857E065EAC4
:1018D00077E0CE010ADF4AE557E066E777E0CE0120
:1018E00004DF41E357E068E477E0CE01FEDE49E043
:1018F00057E060E277E0CE01F8DE4DEC56E063EFB2
:1019000076E0CE01F2DE41EA56E06EEB76E0CE0103
:10191000ECDE48E756E062E976E0CE01E6DE41E53E
:1019200056E06CE676E0CE01E0DE4AE256E065E4A1
:1019300076E0CE01DADE41E056E06CE176E0CE0101
:10194000D4DE49ED55E062EF75E0CE01CEDE4FEA20
:1019500055E06AEC75E0CE01C8DE49ED55E06FE96F
:1019600075E0CE01C2DE66E071E0CE01DF91CF917D
:101970000C94F733CF93DF9300D0CDB7DEB720912F
:101980009D0230919E022115310511F421EA32E0C9
:10199000CE010196821B930B97FF03C09195819511
:1019A00091090F900F90DF91CF910895CF93DF931E
:1019B00060E002960E94DE336CE472E00E94F7332E
:1019C000D82FC92FD7DFBC018D2F9C2F0E94A134A7
:1019D00066E071E0DF91CF910C94F7330F931F9382
:1019E000CF93DF93EC018C01045C1E4F28AD39AD21
:1019F0004CA95DA96EA97FA9C8010E947D26FE01A0
:101A0000EC5BFF4F208131813497408151816281AD
:101A10007381C8010E94B5222EAD3FAD4AAD5BADCA
:101A20006CAD7DADC8010E94E726FE01E45BFF4F6F
:101A300040815181329760817181C8010E94072ADB
:101A4000FE01E85BFF4F40815181CA5BDF4F688137
:101A50007981C801DF91CF911F910F910C949E2A3B
:101A6000FC0111A681E082A783A7DF01AA5ABF4F1C
:101A700097E09C93119648EE53E060E070E04D9340
:101A80005D936D937C9313979D962BE63DE01196A5
:101A90003C932E93129611963C932E931296119688
:101AA0003C932E9320E13EE031AB20AB44E550E186
:101AB00053AB42AB40E45EE765E070E044A755A756
:101AC00066A777A7979744E650E060E070E04D93F3
:101AD0005D936D937C931397539711961C921E926E
:101AE000129644EF51E011965C934E93129648E3A0
:101AF0005FEF11965C934E9312964AE852E011966E
:101B00005C934E9317968C9311968C931196119625
:101B10003C932E9318968AE08C93169788E097E072
:101B200011969C938E935F974CE755E160E070E0CF
:101B30004D935D936D937C931397149688EB9BE084
:101B40008D939C9380E898E3A1E0B0E084AB95ABE3
:101B5000A6ABB7AB88EC90E091AF80AF80E49CE996
:101B6000A0E0B0E082AF93AFA4AFB5AF80ED97E057
:101B700097AF86AFDF01AA5BBF4F88E690E1119671
:101B80009C938E93129682E090E011969C938E9394
:101B9000129622E23BE011963C932E9312968D937F
:101BA0009C93EA59FF4F8EE1DF011D928A95E9F778
:101BB0000895CF93DF93D82FC92F52DF8D2F9C2FFD
:101BC000DF91CF910BCFEF92FF920F931F93CF93A3
:101BD000DF9300D000D0CDB7DEB789839A83098127
:101BE0001A810E5F1F4F603208F087C3E62FF0E0C6
:101BF000E259F44C0C94663660E0C8010E94DE3372
:101C000067E47AE00E94F7336DE30E94EA33A9812A
:101C1000BA819A966C9170E00E943C3460E0C801F1
:101C20000E94DE3365E27AE00F900F900F900F90E4
:101C3000DF91CF911F910F91FF90EF900C94F733AC
:101C400060E0C8010E94DE3369E17AE00E94F73368
:101C50006DE30E94EA33E981FA8163A570E00E9496
:101C60003C3460E0C8010E94DE3364EF79E0DCCFF1
:101C700060E0C8010E94DE336EEE79E00E94F73327
:101C80006DE30E94EA33A981BA8199966C9170E064
:101C90000E943C3460E0C8010E94DE3363EC79E0CE
:101CA000C3CF60E0C8010E94DE3367EB79E00E9499
:101CB000F7336DE30E94EA33E981FA81EA5AFF4F74
:101CC000FA83E983808161E380FF60E3C8010E94B9
:101CD000EA3360E2C8010E94EA33A981BA818C919B
:101CE00061E381FF60E3C8010E94EA3360E2C8015A
:101CF0000E94EA33E981FA81808161E382FF60E337
:101D0000C8010E94EA3360E0C8010E94DE336AE93C
:101D100079E08ACF60E0C8010E94DE336CE879E0A8
:101D20000E94F7336DE30E94EA3329813A81295AF0
:101D30003F4FD9014D915D916D917C910E94CD34C1
:101D400060E0C8010E94DE336CE779E06DCF60E0AF
:101D5000C8010E94DE336DE679E00E94F7336DE33F
:101D60000E94EA33E981FA81EC57FF4F608171816B
:101D70000E94A13460E20E94EA33E981FA81EA57C5
:101D8000FF4F608171810E94A13460E20E94EA33BA
:101D9000E981FA81E857FF4F608171810E94A13487
:101DA00060E0C8010E94DE3365E479E03DCF60E089
:101DB000C8010E94DE3367E379E00E94F7336DE3E8
:101DC0000E94EA33A981BA81D0966D917C910E94DC
:101DD000A13460E0C8010E94DE336CE279E024CFD8
:101DE00060E0C8010E94DE3361E279E00E94F733CF
:101DF0006DE30E94EA33E981FA8162A973A90E9426
:101E0000A13460E0C8010E94DE3366E179E00CCFC6
:101E100060E0C8010E94DE3366E079E00E94F7339B
:101E20006DE30E94EA337C01A981BA819C968D9171
:101E30009D910D90BC91A02DBC01CD012CE330E013
:101E400040E050E00E944A36ACE3B0E00E948136A8
:101E500069837A838B839C83AB01BC01C7010E9499
:101E6000503460E0C8010E94DE3369ED78E0DCCEDA
:101E700060E0C8010E94DE336BEC78E00E94F7332B
:101E80006DE30E94EA33E981FA81EF59FF4F408107
:101E90005181628173810E94CD3460E0C8010E944B
:101EA000DE336BEA78E0C0CE60E0C8010E94DE332A
:101EB00069E978E00E94F7336DE30E94EA332981F3
:101EC0003A81225B3F4FD9016D917C910E943C3455
:101ED00060E0C8010E94DE336DE678E0A5CE60E0E8
:101EE000C8010E94DE336BE578E00E94F7336DE3B2
:101EF0000E94EA33E981FA81E05BFF4F60817181E2
:101F00000E943C3460E0C8010E94DE336EE278E05B
:101F10008BCE60E0C8010E94DE3369E178E00E9468
:101F2000F7336DE30E94EA3329813A812E5A3F4FFD
:101F3000D9016D917C910E943C3460E0C8010E94FF
:101F4000DE336DE678E070CE60E0C8010E94DE33DB
:101F500064E078E00E94F7336DE30E94EA33E981A0
:101F6000FA81EC5AFF4F608171810E943C3460E03D
:101F7000C8010E94DE336EE278E056CE60E0C80110
:101F80000E94DE3364EF77E00E94F7336DE30E9436
:101F9000EA3329813A81255A3F4FD9016C9170E08B
:101FA0000E943C3460E0C8010E94DE3365ED77E0BA
:101FB0003BCE60E0C8010E94DE3367EC77E00E9410
:101FC000F7336DE30E94EA33E981FA81E45AFF4F67
:101FD000608170E00E943C3460E0C8010E94DE3302
:101FE00064EB77E021CE60E0C8010E94DE3365EA51
:101FF00077E00E94F7336DE30E94EA3329813A814A
:10200000235A3F4FD9016D917C910E94A13460E029
:10201000C8010E94DE3367E877E006CE60E0C801C1
:102020000E94DE3366E777E00E94F7336DE30E949B
:10203000EA33E981FA81EB59FF4F60810E946634EF
:1020400060E0C8010E94DE336AE577E0EDCD60E034
:10205000C8010E94DE3368E477E00E94F7336DE345
:102060000E94EA3329813A81215A3F4FD9016D916B
:102070007C910E94A13460E0C8010E94DE3361E3DC
:1020800077E0D2CD60E0C8010E94DE3360E277E005
:102090000E94F7336DE30E94EA33E981FA81E05C44
:1020A000FF4F40815181628173810E94CD3460E095
:1020B000C8010E94DE3369E077E0B6CD60E0C80178
:1020C0000E94DE3363EF76E00E94F7336DE30E94F7
:1020D000EA3329813A812C5B3F4FD9016D917C9184
:1020E0000E94A13460E0C8010E94DE336DEC76E00E
:1020F0009BCD60E0C8010E94DE336EEB76E00E946B
:10210000F7336DE30E94EA33E981FA8144A955A9C6
:1021100066A977A90E94CD3460E0C8010E94DE3331
:1021200061EA76E081CD60E0C8010E94DE3362E9B9
:1021300076E00E94F7336DE30E94EA33A981BA8109
:10214000D8966D917C910E94A13460E0C8010E94F4
:10215000DE3368E776E068CD60E0C8010E94DE33D8
:102160006CE676E00E94F7336DE30E94EA33E98182
:10217000FA8142AD53AD64AD75AD0E94CD3460E0DF
:10218000C8010E94DE3361E576E04ECD60E0C80113
:102190000E94DE3365E476E00E94F7336DE30E942F
:1021A000EA33A981BA81DE966D917C910E94A134B7
:1021B00060E0C8010E94DE336AE276E035CD60E07F
:1021C000C8010E94DE336CE176E00E94F7336DE3D4
:1021D0000E94EA33E981FA81EA5BFF4F60817181F5
:1021E0000E94A13460E0C8010E94DE3361E076E025
:1021F0001BCD60E0C8010E94DE3362EF75E00E94F3
:10220000F7336DE30E94EA3329813A81285B3F4F1F
:10221000D9016D917C910E94A13460E0C8010E94B7
:10222000DE3369ED75E000CD60E0C8010E94DE3369
:102230006AEC75E00E94F7336DE30E94EA33E981AE
:10224000FA81E65BFF4F608171810E94A13460E0FA
:10225000C8010E94DE336FEA75E0E6CC60E0C80199
:102260000E94DE336FE975E00E94F7336DE30E9450
:10227000EA3329813A81245B3F4FD9016D917C91EA
:102280000E94A13460E0C8010E94DE3369ED75E070
:10229000CBCC69E071E0C801C7CC6EE071E0C80149
:1022A0000E94F733E981FA81E657FF4F408151815F
:1022B000628173810F900F900F900F90DF91CF91FB
:1022C0001F910F91FF90EF900C94CD3463E171E07A
:1022D000C8010E94F73329813A8122573F4FD90123
:1022E0006C910F900F900F900F90DF91CF911F91F5
:1022F0000F91FF90EF900C9466346FE3C8010F903C
:102300000F900F900F90DF91CF911F910F91FF9041
:10231000EF900C94EA33CF93DF93EC01FC01E75785
:10232000FE4F8081882301F1E558FF4F8081918124
:102330000E94613A9C0181E02115310509F480E099
:102340008AA7CE01845C9E4F60E470E0232B89F065
:102350000E94F427682F70E0CE0102960E943C3460
:1023600066E071E00E94F73360E0CE01DF91CF912B
:102370002ACC0E942328F8CFCF93DF93EC01FC01F5
:10238000E757FE4F8081882301F1E558FF4F808198
:1023900091810E94613A9C0181E02115310509F487
:1023A00080E08BA7CE01845C9E4F60E470E0232B1D
:1023B00089F00E944C28682F70E0CE0102960E949E
:1023C0003C3466E071E00E94F73361E0CE01DF91BA
:1023D000CF91F9CB0E94DE29F8CFCF93DF93EC01A8
:1023E000FC01E757FE4F8081882361F0E558FF4FDD
:1023F000808191810E94613A9C0191E0232B09F434
:1024000090E099A762E0CE01DF91CF91DCCBCF9332
:10241000DF93EC01FC01E757FE4F8081882379F0C0
:10242000E558FF4F808191810E94613A9C01FE0135
:10243000E55AFF4F91E0232B09F490E090836EE082
:10244000CE01DF91CF91BFCBCF93DF93EC01FC01A5
:10245000E757FE4F8081882379F0E558FF4F808150
:1024600091810E94613A9C01FE01E45AFF4F91E084
:10247000232B09F490E090836FE0CE01DF91CF91A0
:10248000A2CBCF93DF93EC01FC01E757FE4F808195
:102490008823E9F0E558FF4F808191810E94613ADD
:1024A000AC01FE01E85BFF4F80835183329760816E
:1024B0007181CE01845C9E4F0E949E2ABC01CE0198
:1024C00002960E94A13466E071E00E94F7336AE14F
:1024D000CE01DF91CF9177CBCF93DF93EC01FC015D
:1024E000E757FE4F80818823E9F0E558FF4F808150
:1024F00091810E94613AAC01FE01E45BFF4F808351
:102500005183329760817181CE01845C9E4F0E941D
:10251000072ABC01CE0102960E94A13466E071E058
:102520000E94F7336CE1CE01DF91CF914CCBEF925B
:10253000FF920F931F93CF93DF93EC01FC01E757BA
:10254000FE4F8081882329F1853091F5E558FF4FB2
:10255000E080F180C7010E94613A082FC70102960E
:102560000E94613A182FC70104960E94613AFE0149
:10257000EA5AFF4F90810023A9F0916090839081E7
:10258000112391F0926090839081882379F0946078
:10259000908363E0CE01DF91CF911F910F91FF9067
:1025A000EF9011CB9E7FEACF9D7FEDCF9B7FF0CF49
:1025B0004AE959E067EB79E0CE01029696D8E9CF77
:1025C000CF93DF93EC01FC01E757FE4F8081882316
:1025D000A1F0E558FF4F808191810E94613AAC01E2
:1025E000092E000C660B770B892B61F0FE01E95A6E
:1025F000FF4F408351836283738364E0CE01DF9198
:10260000CF91E1CA4CE759E06CE879E0CE0102963F
:102610006CD8F3CF0F931F93CF93DF93EC01FC01A2
:10262000E757FE4F8081882301F18E3029F5E55868
:10263000FF4F00811181C8010E94613AFE01EC57F1
:10264000FF4F91838083C80105960E94613AFE0185
:10265000EA57FF4F91838083C8010A960E94613A2E
:10266000FE01E857FF4F9183808365E0CE01DF9143
:10267000CF911F910F91A7CA45E459E06DE679E02B
:10268000CE01029632D8F1CFCF93DF93EC01FC015B
:10269000E757FE4F8081882351F0843069F4E55874
:1026A000FF4F808191810E94613A99AB88AB66E0CF
:1026B000CE01DF91CF9187CA4CE259E067E379E020
:1026C000CE01029612D8F3CFCF93DF93EC01FC0139
:1026D000E757FE4F8081882351F0843069F4E55834
:1026E000FF4F808191810E94613A9BAB8AAB67E08A
:1026F000CE01DF91CF9167CA46E159E061E279E00E
:10270000CE0102960E94750BF2CFCF93DF93EC01BE
:10271000FC01E757FE4F80818823A9F0E558FF4F61
:10272000808191810E947E3A9B01AC012115310587
:102730004105510569F0A0E1BEE00E9481366CA719
:102740007DA78EA79FA768E0CE01DF91CF913BCAFE
:1027500049ED58E066E079E0CE0102960E94750BE3
:10276000F2CFCF93DF93EC01FC01E757FE4F80815E
:102770008823A1F0E558FF4F808191810E94613A42
:10278000AC01092E000C660B770B892B61F0FE0162
:10279000EF59FF4F408351836283738369E0CE0119
:1027A000DF91CF9110CA4BEA58E06BEC78E0CE0194
:1027B00002960E94750BF2CFCF93DF93EC01FC01E0
:1027C000E757FE4F8081882391F0E558FF4F8081C5
:1027D00091810E94613A9C01FE01E05BFF4F808184
:1027E00091812817390744F43297318320836AE0B6
:1027F000CE01DF91CF91E7C94DE658E069E978E075
:10280000CE0102960E94750BF2CFCF93DF93EC01BD
:10281000FC01E757FE4F8081882391F0E558FF4F78
:10282000808191810E94613A9C01FE01E25BFF4F31
:10283000808191818217930744F4329631832083FB
:102840006BE0CE01DF91CF91BEC94EE258E06BE55F
:1028500078E0CE0102960E94750BF2CFCF93DF9302
:10286000EC01FC01E757FE4F8081882391F0E55889
:10287000FF4F808191810E94613A9C01FE01EC5AD8
:10288000FF4F808191812817390744F432973183B3
:1028900020836CE0CE01DF91CF9195C94DE658E0E1
:1028A00069E178E0CE0102960E94750BF2CFCF93DA
:1028B000DF93EC01FC01E757FE4F8081882391F004
:1028C000E558FF4F808191810E94613A9C01FE0191
:1028D000EE5AFF4F808191818217930744F432961C
:1028E000318320836DE0CE01DF91CF916CC94EE240
:1028F00058E064E078E0CE0102960E94750BF2CFBA
:10290000CF93DF93EC01FC01E757FE4F80818823D2
:1029100071F0E558FF4F808191810E94613A18164D
:10292000190654F4FE01E35AFF4F9183808360E15E
:10293000CE01DF91CF9147C947E857E065EA77E0DC
:10294000CE0102960E94750BF2CFCF93DF93EC017C
:10295000FC01E757FE4F8081882361F0E558FF4F67
:10296000808191810E94613A882349F0FE01EB59F0
:10297000FF4F808361E1CE01DF91CF9124C94AE509
:1029800057E066E777E0CE0102960E94750BF2CF22
:10299000CF93DF93EC01FC01E757FE4F8081882342
:1029A00069F0E558FF4F808191810E94613A00975C
:1029B00051F0FE01E15AFF4F9183808362E1CE0125
:1029C000DF91CF9100C941E357E068E477E0CE01A1
:1029D00002960E94750BF2CF0F931F93CF93DF9354
:1029E000EC01FC01E757FE4F8081882349F1E5584F
:1029F000FF4F808191810E94613AAC018E010E5F90
:102A00001F4F181619061CF5052E000C660B770BC8
:102A1000FE01E05CFF4F40835183628373833496F1
:102A200020813181CE01845C9E4F0E94B522AB0192
:102A3000BC01C8010E94CD3466E071E00E94F7330A
:102A400063E1CE01DF91CF911F910F91BCC849E0A6
:102A500057E060E277E0C8010E94750BF1CF0F9359
:102A60001F93CF93DF93EC01FC01E757FE4F80816A
:102A7000882321F1E558FF4F808191810E94613ABE
:102A80009C018E010E5F1F4F0097F9F0FE01EC5B79
:102A9000FF4F91838083349740815181628173819C
:102AA000CE01845C9E4F0E94B522AB01BC01C801DF
:102AB0000E94CD3466E071E00E94F73364E1CE01FC
:102AC000DF91CF911F910F917EC84DEC56E063EFDF
:102AD00076E0C8010E94750BF1CF0F931F93CF933F
:102AE000DF93EC01FC01E757FE4F8081882321F141
:102AF000E558FF4F808191810E94613AAC01092E17
:102B0000000C660B770B8E010E5F1F4F892BD9F0DF
:102B10004CAB5DAB6EAB7FAB28AD39ADCE01845C09
:102B20009E4F0E947D26AB01BC01C8010E94CD349E
:102B300066E071E00E94F73365E1CE01DF91CF914D
:102B40001F910F9140C841EA56E06EEB76E0C80154
:102B50000E94750BF1CF0F931F93CF93DF93EC017E
:102B6000FC01E757FE4F8081882301F1E558FF4FB4
:102B7000808191810E94613A9C018E010E5F1F4FFE
:102B80000097D9F099AF88AF4CA95DA96EA97FA92C
:102B9000CE01845C9E4F0E947D26AB01BC01C80122
:102BA0000E94CD3466E071E00E94F73366E1CE0109
:102BB000DF91CF911F910F9106C848E756E062E977
:102BC00076E0C8010E94750BF1CF0F931F93CF934E
:102BD000DF93EC01FC01E757FE4F8081882321F150
:102BE000E558FF4F808191810E94613AAC01092E26
:102BF000000C660B770B8E010E5F1F4F892BE1F0E7
:102C00004AAF5BAF6CAF7DAF2EAD3FADCE01845C04
:102C10009E4F0E94E726AB01BC01C8010E94CD3443
:102C200066E071E00E94F73367E1CE01DF91CF915A
:102C30001F910F910C94E30D41E556E06CE676E0B0
:102C4000C8010E94750BF0CF0F931F93CF93DF93B2
:102C5000EC01FC01E757FE4F8081882301F1E55824
:102C6000FF4F808191810E94613A9C018E010E5F2D
:102C70001F4F0097E1F09FAF8EAF4AAD5BAD6CADDB
:102C80007DADCE01845C9E4F0E94E726AB01BC0166
:102C9000C8010E94CD3466E071E00E94F73368E11C
:102CA000CE01DF91CF911F910F910C94E30D4AE279
:102CB00056E065E476E0C8010E94750BF0CF0F93F3
:102CC0001F93CF93DF93EC01FC01E757FE4F808108
:102CD000882329F1E558FF4F808191810E94613A54
:102CE000BC018E010E5F1F4FFE01E65BFF4F80812E
:102CF000918186179707D8F4349771836083329651
:102D000040815181CE01845C9E4F0E949E2ABC016D
:102D1000C8010E94A13466E071E00E94F73369E1C6
:102D2000CE01DF91CF911F910F910C94E30D41E003
:102D300056E06CE176E0C8010E94750BF0CF0F936E
:102D40001F93CF93DF93EC01FC01E757FE4F808187
:102D5000882329F1E558FF4F808191810E94613AD3
:102D6000BC018E010E5F1F4FFE01EA5BFF4F8081A9
:102D7000918168177907D8F434967183608332960D
:102D800040815181CE01845C9E4F0E94072ABC0184
:102D9000C8010E94A13466E071E00E94F7336BE144
:102DA000CE01DF91CF911F910F910C94E30D4FEA6B
:102DB00055E06AEC75E0C8010E94750BF0CFEF9208
:102DC000FF920F931F93CF938C01C0E07C0182E0B0
:102DD000E80EF11C6C2FC8010E94E30D66E071E063
:102DE000C7010E94F733CF5FC032A1F7CF911F9187
:102DF0000F91FF90EF900895E2CFAF92BF92CF92E4
:102E0000DF92EF92FF920F931F93CF93DF93EC012A
:102E10007C0182E0E80EF11C60E0C7010E94DE3315
:102E20006FE574E00E94F733FE01EF53FF4F6081BE
:102E300071810E94A13460E00E94DE3366E574E097
:102E40000E94F733FE01ED53FF4F60810E9425344D
:102E500060E00E94DE3368E474E00E94F733FE0114
:102E6000EC53FF4F608171810E94A13460E00E94A9
:102E7000DE3368E374E00E94F733FE01EA53FF4F4C
:102E8000608171810E94A13460E00E94DE3365E2BE
:102E900074E00E94F733FE01E753FF4F60810E9408
:102EA000663460E00E94DE336DE174E00E94F73327
:102EB000FE01E853FF4F60810E94663460E00E948B
:102EC000DE336BE074E00E94F733FE01E653FF4F00
:102ED00040815181628173810E94CD3460E00E9403
:102EE000DE3362E074E00E94F733FE01E253FF4FED
:102EF00040815181628173810E94CD3460E00E94E3
:102F0000DE3360EF73E00E94F733FE01E95CFE4FB1
:102F100040815181628173810E94CD3460E0C7019C
:102F20000E94DE336EED73E00E94F73360E00E9492
:102F3000DE3362ED73E00E94F733FE01EE52FF4F85
:102F400060810E94663460E00E94DE3369E674E0CE
:102F50000E94F733FE01E15FFE4F408151816281A3
:102F600073810E94CD3460E00E94DE3366EC73E032
:102F70000E94F733FE01ED52FF4F60810E946634DC
:102F800060E00E94DE3369E674E00E94F733FE01E0
:102F9000ED5EFE4F40815181628173810E94CD348C
:102FA00060E00E94DE336AEB73E00E94F733FE01BB
:102FB000EC52FF4F60810E94663460E00E94DE3375
:102FC00069E674E00E94F733FE01E95EFE4F40813E
:102FD0005181628173810E94CD3460E00E94DE33B2
:102FE0006EEA73E00E94F733FE01EB52FF4F6081FF
:102FF0000E94663460E00E94DE3369E674E00E945D
:10300000F733FE01E55EFE4F40815181628173819D
:103010000E94CD3460E00E94DE3362EA73E00E94D9
:10302000F733FE01EA52FF4F60810E94663460E090
:103030000E94DE3369E674E00E94F733FE01E15E30
:10304000FE4F40815181628173810E94CD3460E0E6
:103050000E94DE3366E973E00E94F733FE01E95215
:10306000FF4F60810E94663460E00E94DE3369E6B3
:1030700074E00E94F733FE01ED5DFE4F4081518107
:10308000628173810E94CD3460E00E94DE3361E88A
:1030900073E00E94F733FE01E852FF4F60810E9407
:1030A000663460E00E94DE3369E674E00E94F73324
:1030B000FE01E95DFE4F40815181628173810E9472
:1030C000CD3460E00E94DE336CE673E00E94F7339B
:1030D000FE01E752FF4F60810E94663460E00E946B
:1030E000DE3369E674E00E94F733FE01E55DFE4FD2
:1030F00040815181628173810E94CD3460E00E94E1
:10310000DE3367E573E00E94F733FE01E652FF4FBE
:1031100060810E94663460E00E94DE3369E674E0FC
:103120000E94F733FE01E15DFE4F408151816281D3
:1031300073810E94CD3460E00E94DE3362E473E06C
:103140000E94F733FE01E552FF4F60810E94663412
:1031500060E00E94DE3369E674E00E94F733FE010E
:10316000ED5CFE4F40815181628173810E94CD34BC
:1031700060E0C7010E94DE3361E373E00E94F73331
:103180006E01ECEDCE0ED11C01E010E093E0A92E13
:10319000B12C6FEF600FC7010E9466346AE171E0E5
:1031A0000E94F733F60161916F010E94663469E075
:1031B0000E94EA33C801B5010E941536892B29F413
:1031C00066E071E0C7010E94F7330F5F1F4F0031C7
:1031D0001105F9F660E0C7010E94DE3360E273E09A
:1031E0000E94F7336E01FBEECF0ED11C01E010E020
:1031F00083E0A82EB12C6FEF600FC7010E946634E8
:103200006AE171E00E94F733F601619171916F01FB
:103210000E94A1346EE171E00E94F733C801B5014C
:103220000E941536892B29F466E071E0C7010E94DF
:10323000F7330F5F1F4F00311105E9F660E0C7015A
:103240000E94DE336CE073E00E94F7338E01075F6B
:103250001E4FD0E06D2FC7010E9466346AE171E015
:103260000E94F733F801619171918F010E943C3403
:1032700060E20E94EA33DF5FD33061F7DF91CF91E4
:103280001F910F91FF90EF90DF90CF90BF90AF9084
:103290000895B3CD4F925F926F927F928F929F92DB
:1032A000AF92BF92CF92DF92EF92FF920F931F9354
:1032B000CF93DF93EC013B0149015A01CB010E94FE
:1032C000A43A7C018C011127FE01EE5FFD4FC08006
:1032D000D180A801B301C6010E94AD3A892BB9F58E
:1032E000F401DE01A657BE4F7C90C50195958795E8
:1032F0008C0F9D1FB501617077279E012C5F3D4F9C
:103300002901AE0147575E4FE71490F59601200F53
:10331000311FD9012C91203259F50F5F1F4F0C0D31
:103320001D1DD2010D931C937A947E18DA017C92B4
:10333000672B41F0FC0120813181820E931ED40164
:10334000ED91FC910995C857DE4F81E08883DF91AC
:10335000CF911F910F91FF90EF90DF90CF90BF9092
:10336000AF909F908F907F906F905F904F90089557
:10337000D2011D921C92DA011C92DACF0F931F9397
:10338000CF93DF93EC01FB018081882309F475C1A1
:103390008E0108571E4FD8011C92A658BF4F6D933F
:1033A0007C93FE01E657FE4F40832CEF36E150E060
:1033B00040E068E97AE0CE016DDF29E439E150E0D0
:1033C00040E06DE77AE0CE0165DF21E63EE150E0C6
:1033D00040E062E67AE0CE015DDF29ED3DE050E0BD
:1033E00040E067E975E0CE0155DF22EF3FE150E0B4
:1033F00040E065E775E0CE014DDF26E43BE050E0BC
:1034000040E061EB74E0CE0145DF24E13EE150E0B5
:1034100040E067E575E0CE013DDF20E73EE150E0AA
:1034200040E063E475E0CE0135DF2AE43BE050E0A4
:1034300040E063E275E0CE012DDF26ED3CE050E098
:1034400040E06BE075E0CE0125DF25E53BE050E094
:1034500040E062EF74E0CE011DDF27EA3BE050E080
:1034600040E065EC74E0CE0115DF23E73EE150E07B
:1034700040E061E974E0CE010DDF2BE831E150E07E
:1034800040E067E47AE0CE0105DF2CEB31E150E06B
:1034900040E069E17AE0CE01FDDE2DEE31E150E061
:1034A00040E06EEE79E0CE01F5DE27E932E150E052
:1034B00040E067EB79E0CE01EDDE20EE32E150E056
:1034C00040E06CE879E0CE01E5DE2AE033E150E04F
:1034D00040E06DE679E0CE01DDDE24E433E150E04A
:1034E00040E067E379E0CE01D5DE24E633E150E049
:1034F00040E061E279E0CE01CDDE25E833E150E045
:1035000040E066E079E0CE01C5DE21EB33E150E03A
:1035100040E06BEC78E0CE01BDDE2CED33E150E015
:1035200040E069E978E0CE01B5DE25E034E150E025
:1035300040E06BE578E0CE01ADDE2EE234E150E014
:1035400040E069E178E0CE01A5DE27E534E150E016
:1035500040E064E078E0CE019DDE27E032E150E01B
:1035600040E064EF77E0CE0195DE24E232E150E006
:1035700040E067EC77E0CE018DDE20E834E150E0FA
:1035800040E065EA77E0CE0185DE25EA34E150E0EF
:1035900040E066E777E0CE017DDE28EC34E150E0E4
:1035A00040E068E477E0CE0175DE2CEE34E150E0D7
:1035B00040E060E277E0CE016DDE2FE235E150E0E1
:1035C00040E063EF76E0CE0165DE2DE635E150E0C8
:1035D00040E06EEB76E0CE015DDE2BEA35E150E0B7
:1035E00040E062E976E0CE0155DE25EE35E150E0BF
:1035F00040E06CE676E0CE014DDE24E236E150E0BC
:1036000040E065E476E0CE0145DE2FE536E150E0AE
:1036100040E06CE176E0CE013DDE21E432E150E0B5
:1036200040E062EF75E0CE0135DE2FE936E150E093
:1036300040E06AEC75E0CE012DDE2CE632E150E090
:1036400040E06FE975E0CE0125DEF801808181114F
:103650000DC060E0CE0102960E94DE336AE172E0A6
:103660000E94F73366E071E00E94F733D8018C9135
:10367000DF91CF911F910F91089580E0F9CFCF9204
:10368000DF92EF92FF920F931F93CF93DF93EC01A2
:103690008C010F5F1D4FD8018C91811104C081E016
:1036A0008C93E12C55C0813009F060C0E12CFE0103
:1036B000E956FE4F6F01888199810E94430A892B48
:1036C00009F446C0888199810E942B0AF82E682F40
:1036D000888199810E944F0AFDE0FF1211C06AE0C3
:1036E000888199810E944F0AD601EC9181E08E0F6A
:1036F0008C93EC0FFD2FF11DE356FE4FF08212C0AC
:1037000088E0F81619F09FE7F9122CC0D601EC9169
:10371000EE2341F0E150EC93EC0FFD2FF11DE35649
:10372000FE4F1082F6018081843629F0EE24E39466
:10373000FDE0FF12C0CF8150D6018C93C80FD11D80
:10374000C356DE4F188282E0F8018083EE24E394B2
:103750008E2DDF91CF911F910F91FF90EF90DF9011
:10376000CF900895BAE0FB16E9F2BECF823009F09F
:1037700098CF7E01F9E6EF1AFEEFFF0ABE0163560D
:103780007E4FD7014C91CE01F9DD63E271E0CE01AD
:1037900002960E94F733F701108281E0D80180CFB2
:1037A0006F927F928F929F92AF92BF92CF92DF9251
:1037B000EF92FF920F931F93CF93DF93CDB7DEB7B6
:1037C0002A970FB6F894DEBF0FBECDBF89879A87C0
:1037D000E985FA85ED56FE4F208131814281538182
:1037E00067E379E881E490E00E94FA3569837A839F
:1037F0008B839C830E94FB0A6D837E838F839887D3
:1038000028EE33E040E050E00E94283689809A801C
:10381000AB80BC80820E931EA41EB51EC984DA84C0
:1038200022E0C20ED11C60E0C6010E94DE336DE0D2
:1038300072E00E94F733B501A4010E94CD3460E02C
:103840000E94DE3361E072E00E94F7338C01E9846C
:10385000FA8434ECE31A3EEFF30A60E0C701CED6F7
:10386000462F572FBC01C8010E94E23460E20E943B
:10387000EA338C0161E0C701C1D6462F572FBC0146
:10388000C8010E94E23460E20E94EA338C0162E0E7
:10389000C701B4D6462F572FBC01C8010E94E2349D
:1038A00066E071E00E94F73360E0C6010E94DE33FB
:1038B00063EF71E00E94F733E985FA85ED56FF4F1B
:1038C00040815181628173810E94CD3460E00E9409
:1038D000DE336DEE71E00E94F733E985FA85E95633
:1038E000FF4F608171810E94A13460E00E94DE334D
:1038F0006CED71E00E94F733E985FA85E756FF4FDA
:1039000040815181628173810E94503460E00E9445
:10391000DE3366ED71E00E94F733E985FA85E35600
:10392000FF4F608171810E943C3460E00E94DE3371
:103930006EEC71E00E94F73360E00E94DE3368ECC9
:1039400071E00E94F7338C01C70168D4462F572FCE
:10395000BC01C8010E94E23460E00E94DE3364EBE7
:1039600071E00E94F733E985FA85E156FF4F408107
:103970005181628173810E94CD3460E00E94DE3308
:1039800061EA71E00E94F733A984BA848CEDA80E35
:10399000B11C88248394912C43E0642E712CF50192
:1039A00001915F0110E0F8017596EE0FFF1F298568
:1039B0003A85E20FF31FEF53FF4F60817181C6011B
:1039C0000E94A13460E00E94DE336DEE71E00E943F
:1039D000F733F8013A96EE0FFF1F29853A85E20F7B
:1039E000F31FE157FF4F608171810E94A1346AE2A9
:1039F00071E00E94F733C401B3010E941536892B90
:103A000029F466E071E0C6010E94F7333FEF831AA4
:103A1000930A80E18816910411F660E0C6010E94C5
:103A2000DE3360E971E00E94F7338C01C701BAD53B
:103A3000BC01C8010E94A13460E00E94DE3367E847
:103A400071E00E94F7338C01C701BAD5BC01C801EF
:103A50000E94A13460E00E94DE336EE771E00E94B4
:103A6000F7338C01C70190D5BC01C8010E94A13475
:103A700060E00E94DE3363E771E00E94F7336C017F
:103A8000C70182D58C01C7018DD5B801681B790BA0
:103A9000C6010E94A13460E00E94DE3361E671E05D
:103AA0000E94F733E985FA85EE52FF4F60810E944C
:103AB000663460E00E94DE336FE471E00E94F73309
:103AC000E985FA85ED52FF4F60810E94663460E01F
:103AD0000E94DE336DE371E00E94F733E985FA85D9
:103AE000EC52FF4F60810E94663460E00E94DE333A
:103AF0006BE271E00E94F733E985FA85EB52FF4FE4
:103B000060810E94663460E00E94DE3369E171E00A
:103B10000E94F733E985FA85EA52FF4F60810E94DF
:103B2000663460E00E94DE3367E071E00E94F733A4
:103B3000E985FA85E952FF4F60810E94663460E0B2
:103B40000E94DE3360EF70E00E94F733E985FA856A
:103B5000E752FF4F60810E94663460E00E94DE33CE
:103B600069ED70E00E94F733E985FA85E652FF4F70
:103B700060810E94663460E00E94DE3362EC70E097
:103B80000E94F733E985FA85E552FF4F60810E9474
:103B9000663466E071E02A960FB6F894DEBF0FBE79
:103BA000CDBFDF91CF911F910F91FF90EF90DF90EC
:103BB000CF90BF90AF909F908F907F906F900C941C
:103BC000F7330F931F93CF93DF93EC018C01045CC9
:103BD0001E4FC8010E949127C8010E94E73164E688
:103BE00070E0C8016BD360E470E0C8010E94F42764
:103BF000CE010E94EE0C8BA560E470E0882381F07A
:103C0000C8010E944C28C8010E940632CE01C8DDBE
:103C1000CE01D5D8CE01DF91CF911F910F91EDC884
:103C2000C8010E94DE29EFCFBBCD0F931F93CF9326
:103C3000DF93EC018C01060F171F80E0C017D1073E
:103C400019F06991BAD2FACFDF91CF911F910F91FC
:103C500008950F931F93CF93DF9300D000D000D02F
:103C6000CDB7DEB78D839E830E94FB0A69837A837A
:103C70008B839C83ED81FE81E95CFE4F60837183C1
:103C8000828393830D811E810F531F4F6AE770E07B
:103C9000C801CBDF2D813E81255C3E4FD9018C933D
:103CA0004BE750E066E670E0C80126960FB6F89440
:103CB000DEBF0FBECDBFDF91CF911F910F910C944E
:103CC000553BCF93DF93EC01C4DF60E0CE01029659
:103CD0000E94DE3367E774E0DF91CF910C94F733F5
:103CE000B8DF0C947109CF93DF93EC01B2DF60E091
:103CF000CE0102960E94DE3363E874E00E94F7333F
:103D0000CE01845C9E4FDF91CF913CC67F928F9213
:103D10009F92AF92BF92CF92DF92EF92FF920F935A
:103D20001F93CF93DF9300D00F92CDB7DEB78C01F6
:103D300049835A836B83D22EFC01E157FF4F2083C6
:103D40000E94FB0A4B015C01780125E7E21A2EEF85
:103D5000F20AF70180819181A281B381A5019401CA
:103D6000281B390B4A0B5B0BDA01C9018A3F91050D
:103D7000A105B10508F4A3C061E0CE0101960E943F
:103D8000250B680134ECC31A3EEFD30AC6010E942A
:103D9000E731782EF70180829182A282B38282FF7E
:103DA00009C060E0C80102960E94DE336AEB72E04F
:103DB0000E94F73373FE13C060E0C80102960E94B0
:103DC000DE336AEA72E00E94F733F801E456FE4FF0
:103DD000808181508083811102C0C80184DF71FE1F
:103DE00009C060E0C80102960E94DE336EE872E00E
:103DF0000E94F73370FE09C060E0C80102960E947D
:103E0000DE336DE672E00E94F733F801EC53FF4FAA
:103E100080819181EC52FF4F20813181821793077D
:103E200021F091838083C80114DFF801EA53FF4F2A
:103E300080819181EC52FF4F20813181821793075D
:103E400021F091838083C80104DFC6019DD37C01EA
:103E5000C601A8D3E81AF90AF5E6EF16F10448F00E
:103E600060E0C80102960E94DE3367E572E00E94BE
:103E7000F733980121573E4FF90180819181A2814A
:103E8000B38188169906AA06BB0670F40D561E4F1C
:103E9000F80180819181A281B3810196A11DB11D9C
:103EA00080839183A283B383F90180829182A2826D
:103EB000B38260E0CE0101960E94250BD12C8D2D9E
:103EC0000F900F900F90DF91CF911F910F91FF9066
:103ED000EF90DF90CF90BF90AF909F908F907F90AA
:103EE0000895DF92EF92FF920F931F93CF93DF938A
:103EF000EC018C010E5F1F4F60E0C8010E94DE33B1
:103F000060E073E00E94F7337E0181ECE80EF11C63
:103F10004BE750E066E670E0C7010E94453BFE01BA
:103F2000E55CFE4FD0806AE770E0C7017EDED81600
:103F3000D9F060E0C8010E94DE336AEE72E00E94B0
:103F4000F7338BE7F70111928A95E9F7CE0181DE0D
:103F500066E071E0C801DF91CF911F910F91FF9052
:103F6000EF90DF900C94F73361E371E0C8010E9499
:103F7000F733EECF0F931F93CF93DF9300D000D092
:103F800000D0CDB7DEB78D839E830E94FB0A698384
:103F90007A838B839C83ED81FE81E657FF4F60839C
:103FA0007183828393830D811E81075D1F4F65E6B8
:103FB00070E0C8013ADE2D813E8122573F4FD90182
:103FC0008C9346E650E060E070E0C80126960FB69C
:103FD000F894DEBF0FBECDBFDF91CF911F910F913F
:103FE0000C94553BC7CFDF92EF92FF920F931F9334
:103FF000CF93DF93EC018C010E5F1F4F60E0C8018F
:104000000E94DE336FED72E00E94F7337E0189E299
:10401000E80EF11C46E650E060E070E0C7010E9447
:10402000453BFE01E257FF4FD08065E670E0C701D7
:10403000FCDDD816C9F0CE010E94300D60E0C80149
:104040000E94DE3369EC72E00E94F733CE0192DF0A
:1040500066E071E0C801DF91CF911F910F91FF9051
:10406000EF90DF900C94F73361E371E0C8010E9498
:10407000F733EECF0F931F93CF93DF93EC010E94A2
:104080000E0ABC01FE01819391938F01CF010E9422
:10409000C4339E012F533F4FAE0141575F4FBE01C6
:1040A000675D7F4FCE01845C9E4F91D0FE01E85743
:1040B000FE4F108231961082319610823196108216
:1040C000118212821382349610821182128213821C
:1040D0003496108211821282138234961082E6592D
:1040E000FF4F108260E0C8010E94DE336AEF7AE081
:1040F0000E94F73366E071E00E94F73360E0C80188
:104100000E94DE336CEC7AE00E94F73366E071E0E7
:104110000E94F73360E0C8010E94DE3362EA7AE071
:104120000E94F73366E071E00E94F733CE015BDF57
:10413000CE01D7DEFE01E856FE4FDE01AC53BF4F85
:104140008D919C91119791838083329612968D91D7
:104150009C9191838083C456DE4F8FEF8883DF91DB
:10416000CF911F910F910895EF92FF920F931F939C
:10417000CF93DF937C011092900208E010E0C0E83A
:10418000D0E0C7018C239D2366E371E08C179D0767
:1041900011F464E371E080E992E00E94BB3AD595A6
:1041A000C7950150110969F780E992E0DF91CF913D
:1041B0001F910F91FF90EF900895862798E027E0D8
:1041C000382F880F37FD82279150D1F70895CF926D
:1041D000DF92EF92FF920F931F93CF93DF93EC0147
:1041E0006B017A0189010E940E0ABC01CE010E9476
:1041F000C433CFA2D8A6E9A6FAA60BA71CA71DAA6E
:104200001EAA1AAA19AA1CAA1BAADF91CF911F9154
:104210000F91FF90EF90DF90CF900895EF92FF9273
:104220000F931F93CF93DF9300D000D0CDB7DEB7AD
:1042300089839A83E981FA81EE5BFF4F6081718106
:10424000828193810E94A9377B018C01A981BA8167
:104250009796ED91FC9163817481858196810E948E
:10426000A9379B01AC01E982FA820B831C83698127
:104270007A818B819C810E940E3720E030E048ECEF
:1042800052E469837A838B839C8369817A818B81F1
:104290009C810E94A23869837A838B839C83698185
:1042A0007A818B819C810F900F900F900F90DF91FE
:1042B000CF911F910F91FF90EF9008958F929F9251
:1042C000AF92BF92CF92DF92EF92FF920F931F9324
:1042D000CF93DF93CDB7DEB72A970FB6F894DEBF42
:1042E0000FBECDBF4C01DB01FC0127A130A5AC0105
:1042F0004E5B5F4F7A01F9016536710528F5238120
:104300003481458156810E948B3624E630E040E0BE
:1043100050E00E944A36D7012D933D934D935C9314
:1043200013972A960FB6F894DEBF0FBECDBFDF916C
:10433000CF911F910F91FF90EF90DF90CF90BF90A2
:10434000AF909F908F9008958081882319F160E04D
:10435000C4010E94DE3362E77CE00E94F733D4019F
:104360009996ED91FC9163810E94663460E00E9411
:10437000DE3366E67CE00E94F733D4019996ED9136
:10438000FC9144815581668177810E94CD3466E538
:104390000E94EA33D4019996ED91FC91238130E09B
:1043A00050E040E084819581A681B78189839A831A
:1043B000AB83BC83BC01CD010E942836C901D70163
:1043C0001D921D921D921C921397F401A7A8B0ACE8
:1043D000F50110E000E0C190D1908C159D0508F426
:1043E000BDC0D4019796ED91FC9183819481A58104
:1043F000B6818D839E83AF83B8870115110531F493
:10440000F70180839183A283B3838BCFC901B0E08E
:10441000A0E089839A83AB83BC83B901CD010E945C
:10442000A7374B018A879987960150E040E029839E
:104430003A834B835C83CA01B6010E94A7379B0174
:10444000AC0189829A828A858B8399859C83698154
:104450007A818B819C810E94A5364B018A8799873E
:10446000F801E150F048EE0FFF1FEA0DFB1D8081BF
:1044700091818C199D099C0150E040E029833A8389
:104480004B835C83CA01B9010E94A7379B01AC0131
:1044900089829A828A858B8399859C8369817A81B6
:1044A0008B819C810E940E376B018A8799879801C6
:1044B000110F440B550B29833A834B835C83CA014C
:1044C000B9010E94A9379B01AC0160E070E080EA6D
:1044D00091E40E94A5369B01AC01C982DA828A85EB
:1044E0008B8399859C8369817A818B819C810E94D1
:1044F000A6368B018A8799876D817E818F81988509
:104500000E94A93720E030E040EA51E469837A83D1
:104510008B839C8369817A818B819C810E940E3779
:104520009B01AC0109831A83AA85AB83B985BC833F
:1045300069817A818B819C810E94A23869837A8308
:104540008B839C8369817A818B819C810E947637E1
:10455000F7016083718382839383E3CE0F5F1F4FE4
:104560000531110509F037CFDCCEFC01972F752FEF
:10457000862F07A0F0A5E02D478B508F618F928F7B
:10458000348F238F642F0895DC019B96ED91FC916D
:10459000878190E04596880F991FE80FF91F808169
:1045A00091810895DC019B96ED91FC91808590E0CE
:1045B0004596880F991FE80FF91F80819181089512
:1045C000CF93DF9300D000D0CDB7DEB7DC01999652
:1045D000ED91FC91238130E050E040E084819581B1
:1045E000A681B781BC01CD010E942836C9010F9078
:1045F0000F900F900F90DF91CF910895CF93DF939D
:1046000000D000D0CDB7DEB7FC016330A8F583A59C
:1046100094A570E06C5D7F4F660F771F680F791F60
:10462000FB01808191819C01990F440B550B2983DB
:104630003A834B835C83CA01B9010E94A93720E009
:1046400030E040E251E469837A838B839C83698103
:104650007A818B819C810E940E3769837A838B8358
:104660009C8369817A818B819C810F900F900F9040
:104670000F90DF91CF91089563E373E988E893EC9D
:10468000ECCFFC01A7A1B0A59D964C9150E030E085
:1046900020E08FEF9FE7BA01022E02C07595679563
:1046A0000A94E2F760FF0FC0A3A5B4A5B9016C5D41
:1046B0007F4F660F771FA60FB71F6D917C9168170C
:1046C00079070CF4CB012F5F3F4F2330310519F7E9
:1046D0000895FC01A7A1B0A59D964C9150E030E053
:1046E00020E080E090E8BA01022E02C0759567953F
:1046F0000A94E2F760FF0FC0A3A5B4A5B9016C5DF1
:104700007F4F660F771FA60FB71F6D917C9186179D
:1047100097070CF4CB012F5F3F4F2330310519F77A
:104720000895AF92BF92CF92DF92EF92FF920F93D4
:104730001F93CF93DF9300D000D000D0CDB7DEB76A
:104740006D837E839C0150E040E029833A834B8354
:104750005C83CA01B9010E94A73721E835E943EC1F
:104760005EE369837A838B839C8369817A818B8101
:104770009C810E94A23869837A838B839C836981A0
:104780007A818B819C810E947B3769837A838B83BA
:104790009C83A981BA81CD01B0E0A0E089839A838E
:1047A000AB83BC83BC01CD010E94A7377B018C0188
:1047B00020E030E44CE156E46983FA828B831C8369
:1047C00069817A818B819C810E94A2385B016C0196
:1047D0009701A80160E070E48EE495E40E94A5369C
:1047E0009B01AC01A982BA82CB82DC8269817A8189
:1047F0008B819C810E940E3769837A838B839C8393
:1048000069817A818B819C810E947B370E94A737C6
:1048100020E030E44CE156E469837A838B839C8307
:1048200069817A818B819C810E940E3769837A83AA
:104830008B839C8369817A818B819C810E94623801
:104840007B018C014D815E819A0150E040E029831B
:104850003A834B835C83CA01B9010E94A7379B014D
:10486000AC0160E070E080E89FE30E940E379701A2
:10487000A80169837A838B839C8369817A818B8188
:104880009C810E94A2382FE03FEC4BE55BE36983FB
:104890007A838B839C8369817A818B819C810E943E
:1048A000A6369B01AC0160E070E080E89FE30E94C7
:1048B0000E3723E333E948E853E469837A838B8333
:1048C0009C8369817A818B819C810E94A53620E03E
:1048D00030E040E251E469837A838B839C83698171
:1048E0007A818B819C810E94A23869837A838B8331
:1048F0009C8369817A818B819C810E947637CB0170
:1049000026960FB6F894DEBF0FBECDBFDF91CF91D4
:104910001F910F91FF90EF90DF90CF90BF90AF90DD
:104920000895EF92FF920F931F93CF93DF930F920F
:10493000CDB7DEB78C01E62EF42ECE0101960E9493
:104940007333F801E5A6F6A660E180E036DC6E2D53
:1049500034DC6F2D32DCF80187A7A801435D5F4F7F
:1049600023E068E0CE0101960E948833CE010196D3
:104970000E9482330F90DF91CF911F910F91FF9092
:10498000EF900895CF93DF93D82FC92F40E064E0D4
:10499000C8DF41E064E08D2F9C2FC3DF42E064E07C
:1049A0008D2F9C2FDF91CF91BCCF2F923F924F92B2
:1049B0005F926F927F928F929F92AF92BF92CF92AF
:1049C000DF92EF92FF920F931F93CF93DF93CDB7B8
:1049D000DEB72B970FB6F894DEBF0FBECDBF8C01AC
:1049E0000E94FB0A6E837F8388879987D8019796F8
:1049F000CD90DC909897F60183A99996AD90BC90E4
:104A00009A97882309F448C1F801E65BFF4F80813B
:104A1000811142C19B96ED90FC90F60182A98823FA
:104A200029F0D50112968C91823021F1F60146A829
:104A300057A8712C612CF70181859285A385B485D7
:104A40002E813F8148855985281B390B4A0B5B0B0A
:104A50002E833F8348875987CA01B90128EE33E086
:104A600040E050E00E9428362415350546055705DC
:104A70000CF412C1D7011796EC911797F0E07596D8
:104A8000EE0FFF1FEE0DFF1D20813181F60184A97D
:104A900095A98217930708F0FFC018968C9190E0B3
:104AA0004596880F991FE80EF91ED7018D919C91AC
:104AB000281B390B84AD8217130608F0EDC0F501F1
:104AC000108A118A128A138AF12CD12CC12C9AE2F5
:104AD000692E712C9E012F5F3F4F5901D8019B9683
:104AE000ED91FC919C972F01460C571C97962D90A9
:104AF0003C9030E020E0D2014D915D912D01443F8A
:104B0000B1E05B07F0F1A085B0E05596AA0FBB1F9E
:104B1000AE0FBF1F8D919C91BA01681B790BCB0121
:104B2000D101DC966C916817190658F5822F90E038
:104B30004501880E991E0097F9F0BC01615071097A
:104B40007F836E83D401EE90BB87AA87B6016E0D7A
:104B5000711D6B5E7F4F660F771F6E0F7F1FDB012E
:104B60006D917C916417750738F4D401EC928A84B6
:104B70009B848E819F81DFCF8A0D9B1DDC013C933E
:104B80002F5F3F5F353009F0B6CFF501912C812CB6
:104B90008E2F8A198217E0F4819141E050E002C023
:104BA000440F551F8A95E2F7CA0188299929AC015B
:104BB000440F551F48215921B401660F771F682300
:104BC0007923462B572B452B09F0C4014C01E0CF2C
:104BD000F394D1018C91882301F160E0C8010E9417
:104BE000DE3367EA7CE00E94F7336F2D0E94663463
:104BF00060E0C8010E94DE3368E97CE00E94F73380
:104C0000582EE92EC401B0DABC01852D9E2D0E94DC
:104C1000F73366E071E00E94F733D8019996ED9181
:104C2000FC91A4010C2C02C0440F551F0A94E2F71A
:104C300070E060E080899189A289B389842B952BEB
:104C4000A62BB72B808B918BA28BB38B482D6F2D0E
:104C5000C80167DEBAE06B0E711CE5E0CE0ED11C18
:104C6000F3E0FF123BCF2B960FB6F894DEBF0FBEDA
:104C7000CDBFDF91CF911F910F91FF90EF90DF900B
:104C8000CF90BF90AF909F908F907F906F905F90EC
:104C90004F903F902F900895F50180899189A289C6
:104CA000B389892B8A2B8B2BF1F2F12CF394D80149
:104CB0009796ED91FC918081882379F060E0C8019E
:104CC0000E94DE336DE77CE00E94F7336F2D0E9477
:104CD000663466E071E00E94F73340E06F2DC80152
:104CE00020DEB3E0FB12E2CFD8019996ED91FC9162
:104CF000108A118A128A138AB6CFCF92DF92EF926E
:104D0000FF920F931F93CF93DF9300D000D00F92A9
:104D1000CDB7DEB78C01942F852FAB01D8019796C4
:104D2000ED91FC919387848765875687308B278721
:104D30001D82C6A4D7A4E0A8F1A8292F382FC70147
:104D4000B6010E94FA3569837A838B839C8320E4C1
:104D500032E44FE050E00E942836E0E5F1E087E0E1
:104D60009291291788F187708D838D8188618D8359
:104D7000482F66E0C801D5DDAD81A770EA2FF0E0CD
:104D8000E85BFE4FA081B0E020E432E44FE050E069
:104D90000E948136D8019796ED91FC9126A537A502
:104DA00040A951A90E942836CA01B9010F900F905D
:104DB0000F900F900F90DF91CF911F910F91FF9067
:104DC000EF90DF90CF900895815051F6CECFCF92E3
:104DD000DF92EF92FF920F931F93CF93DF9300D058
:104DE00000D00F92CDB7DEB78C01942F852FAB0189
:104DF000D8019796ED91FC91918B828B638B548BAC
:104E0000368B258B1D82C6A4D7A4E0A8F1A8292F34
:104E1000382FC701B6010E94FA3569837A838B83E4
:104E20009C8320E432E44FE050E00E942836E8E41E
:104E3000F1E08FE092912917A0F18F709D81907F12
:104E4000982B9D83AD81A067AD834A2F67E0C80191
:104E500068DDBD81BF70EB2FF0E0E85CFE4FA08104
:104E6000B0E020E432E44FE050E00E948136D80107
:104E70009796ED91FC9126A537A540A951A90E94CE
:104E80002836CA01B9010F900F900F900F900F9024
:104E9000DF91CF911F910F91FF90EF90DF90CF9016
:104EA0000895815039F6CECFCF92DF92FF920F93C3
:104EB0001F93CF93DF930F92CDB7DEB78C01F62E01
:104EC000CE0101960E947333F801F5A66801FDE258
:104ED000CF0ED11C21E0A60168E0CE0101960E9410
:104EE000883322E0A60168E0CE0101960E94993342
:104EF000F801F5A461E180E060D96F2D5ED9F80179
:104F000096A59813EECFCE0101960E9482338F2D85
:104F10000F90DF91CF911F910F91FF90DF90CF9075
:104F200008951F93CF93DF93EC01E9A5FAA582E3DF
:104F3000DF011D928A95E9F7E9A5FAA581E0808352
:104F400049E16BE0CE01EDDC6BE0CE01ADDF8931F4
:104F500091F060E0CE010E94DE3361E77EE00E94C6
:104F6000F733BFED23E984E0B15020408040E1F702
:104F700000C00000E5CF48E164E0CE01D2DC40E4AF
:104F800065E0CE01CEDC40E061E0CE01CADC40E06D
:104F900062E0CE01C6DC40E063E0CE01C2DC61E548
:104FA000CE0182DFEBA5FCA5828360E5CE017CDF2C
:104FB000182F69E5CE0178DFEBA5FCA5212F30E0A5
:104FC000220F331F2871332790E045E09595879590
:104FD0004A95E1F7282B392B23593E4F3183208303
:104FE000DF91CF911F9108951F93CF93DF93EC0131
:104FF0006095709589A99AA9682379237AAB69ABE2
:105000001DA9112331F011E0812FDF91CF911F9164
:105010000895672BC9F765E0CE0146DF482F416050
:1050200065E0CE017EDC81E08DABEFA1F8A51081BB
:10503000112349F360E0CE010E94DE3369EF7CE08A
:105040000E94F733E1CFCF93DF93EC0189A99AA9AE
:10505000682B792B7AAB69AB8DA98823D1F0672BAC
:10506000C1F065E0CE0120DF482F4E7F65E0CE0124
:1050700058DC1DAAEFA1F8A58081882351F060E0DB
:10508000CE010E94DE3365EE7CE0DF91CF910C947F
:10509000F733DF91CF9108951F93CF93DF93EC0106
:1050A000609570958BA99CA9682379237CAB6BAB29
:1050B0001EA9112331F011E0812FDF91CF911F91B3
:1050C0000895672BC9F765E0CE01EEDE482F4260F8
:1050D00065E0CE0126DC81E08EABEFA1F8A5108162
:1050E000112349F360E0CE010E94DE336FEC7CE0D7
:1050F0000E94F733E1CFEF92FF920F931F93CF936C
:10510000DF9300D000D000D0CDB7DEB77C018C019A
:10511000065B1F4FD8018C9185FF3EC00E94FB0AA1
:1051200069837A838B839C83D7019B96ED91FC9155
:10513000E25BFF4F80819181A281B38129813A8115
:105140004B815C81281B390B4A0B5B0BDA01C901CF
:10515000893B9B40A105B105F8F0D7019796ED91E9
:10516000FC918081882341F060E0C7010E94DE331A
:1051700067EB7DE00E94F73340E260E0C701D1DBDE
:1051800061E070E0C70130DF61E070E0C70184DFFB
:10519000F80180818F7D8083D8018C9184FF1FC0AE
:1051A000D7019796ED91FC918081882341F060E0D2
:1051B000C7010E94DE336CE97DE00E94F73340E1D5
:1051C00060E0C701AEDB62E070E0C7010DDF62E0C6
:1051D00070E0C70161DFF80180818F7E8083D80194
:1051E0008C9183FF2DC0F70123A534A5A7A1B0A5FD
:1051F000F901808590E04596880F991FE80FF91F07
:105200002081318191968D919C919297821793077D
:10521000B8F48C91882341F060E0C7010E94DE332E
:1052200069E77DE00E94F73348E060E0C70179DB81
:1052300064E070E0C70130DFD8018C91877F8C93E8
:10524000F801808182FF31C0D7019B962D913C915E
:105250009C9797960D90BC91A02DF901878190E0C5
:105260004596880F991FE80FF91F208131815D96BF
:105270008D919C915E9728173907B8F48C918823FB
:1052800041F060E0C7010E94DE3367E57DE00E94E7
:10529000F73344E060E0C70144DB68E070E0C70139
:1052A000A3DED8018C918B7F8C93F801808181FFE4
:1052B0003AC00E94FB0A69837A838B839C83D7015F
:1052C0009B96ED91FC91E25AFF4F80819181A281E2
:1052D000B38129813A814B815C81281B390B4A0BB0
:1052E0005B0BDA01C90181319742A105B105D8F004
:1052F000D7019796ED91FC918081882341F060E081
:10530000C7010E94DE3364E37DE00E94F73342E090
:1053100060E0C70106DB60E170E0C701BDDEF801B7
:1053200080818D7F8083D8018C9180FF3AC00E945C
:10533000FB0A69837A838B839C83D7019B96ED91CB
:10534000FC91EE59FF4F80819181A281B381298127
:105350003A814B815C81281B390B4A0B5B0BDA01CC
:10536000C90181319742A105B105D8F0D7019796BF
:10537000ED91FC918081882341F060E0C7010E949B
:10538000DE336CE07DE00E94F73341E060E0C7016E
:10539000C8DA60E270E0C7017FDEF80180818E7FAD
:1053A000808326960FB6F894DEBF0FBECDBFDF9187
:1053B000CF911F910F91FF90EF900895CF93DF93BE
:1053C000EC018BA99CA9682B792B7CAB6BAB8EA9CC
:1053D0008823D1F0672BC1F065E0CE0165DD482F51
:1053E0004D7F65E0CE019DDA1EAAEFA1F8A5808170
:1053F000882351F060E0CE010E94DE3368EB7CE050
:10540000DF91CF910C94F733DF91CF910895DF9224
:10541000EF92FF920F931F93CF93DF9300D000D0B2
:1054200000D0CDB7DEB78D839E837B018A01AD812D
:10543000BE819796ED91FC91989772A361A354A3B6
:1054400043A368E0CD0130DDD82EAD81BE819B96AF
:10545000ED91FC9182819701281B310987FD3395DD
:10546000A8EEB3E00E946C3669837A838B839C83B9
:105470002081318150E040E00E94283694E056952A
:105480004795379527959A95D1F733277901BFEF3F
:10549000EB1AFB0A4E2D6AE08D819E8142DAED2DDA
:1054A000EF73DE2E00311105E8F50830110508F024
:1054B00043C091E004301105B0F54D2D68E08D81B9
:1054C0009E812FDAAD81BE819B960D90BC91A02D5F
:1054D000BE83AD83970184E0220F331F8A95E1F7E5
:1054E00030610D90BC91A02D0E946C3628EE33E007
:1054F00040E050E00E942836ED81FE818281082E36
:10550000000C990B820F931F26960FB6F894DEBFFE
:105510000FBECDBFDF91CF911F910F91FF90EF9004
:10552000DF90089593E09295990F990F907CFD2D4F
:10553000FF73DF2ED92AC1CF92E0F5CFBF92CF9271
:10554000DF92EF92FF920F931F93CF93DF9300D0E0
:1055500000D000D0CDB7DEB78D839E837B018A015A
:10556000AD81BE819796ED91FC919897768F658F6E
:1055700050A3478F68E0CD0197DCB82EAD81BE8186
:105580009B96ED91FC9182819701281B310987FD43
:105590003395A8EEB3E00E946C3669837A838B83DF
:1055A0009C832081318150E040E00E9428366901CF
:1055B0007A0194E0F694E794D794C7949A95D1F73A
:1055C0004C2D69E08D819E81ACD9BB2DBF7CBB2E5B
:1055D0000830110508F046C00430110508F04AC033
:1055E00081E00230110508F03EC04B2D68E08D814E
:1055F0009E8197D9AD81BE819B960D90BC91A02DC7
:10560000BE83AD8384E0CC0CDD1C8A95E1F7B0EF5E
:10561000CB22BFE0DB2296013062ED81FE81A081CA
:10562000B1810E946C3628EE33E040E050E00E94E9
:105630002836AD81BE8112968C91082E000C990BF4
:10564000820F931F26960FB6F894DEBF0FBECDBF14
:10565000DF91CF911F910F91FF90EF90DF90CF904E
:10566000BF90089583E08295807FEB2DEF7CBE2E66
:10567000B82ABBCF82E0F7CFCF92DF92EF92FF92B2
:105680000F931F93CF93DF930F92CDB7DEB78C01AB
:10569000F62ECE0101960E947333F801F5A668013B
:1056A000FDE2CF0ED11C21E0A60168E0CE010196FB
:1056B0000E94883324E0A60168E0CE0101960E9492
:1056C0009933F801E5A461E180E00E94DD206E2DB0
:1056D0000E94DD20F80196A59813ECCFF7A46F2D5A
:1056E00080E00E94DD20F80190A99813E3CFCE015D
:1056F00001960E9482339E2D8F2D0F90DF91CF91C6
:105700001F910F91FF90EF90DF90CF9008950F932E
:105710001F93CF93DF93EC01EFA1F8A5E55AFF4F5C
:10572000008111816CE2A8DFB8010E949123EBA5F2
:10573000FCA5E85BFF4F91838083EFA1F8A5E35AB6
:10574000FF4F008111816EE2CE0196DFB8010E9409
:105750009123EBA5FCA5E65BFF4F91838083EFA12E
:10576000F8A5E35AFF4F0081118160E3CE0184DF89
:10577000B8010E949123EBA5FCA5E45BFF4F918348
:105780008083DF91CF911F910F9108956F927F9247
:105790008F929F92AF92BF92CF92DF92EF92FF9241
:1057A0001F93CF93DF9300D000D000D0CDB7DEB7EA
:1057B0003C0160E079DB182F87FF4CC162E3C30135
:1057C0005BDFD3019996CD90DC909A979796AD9038
:1057D000BC9028EF30E2DC010E947B36F50126A563
:1057E00037A540A951A90E944A3629833A834B83A1
:1057F0005C83D6011A962D933D934D935C931D9730
:105800007301B2E4EB0EF11CCA01B90124E030E0EF
:1058100040E050E00E944A36F70180819181A281E8
:10582000B381820F931FA41FB51F80839183A2832E
:10583000B383F50143815481658176814817590707
:105840006A077B0734F4D7014D935D936D937C9386
:105850001397F70180819181A281B381B7FF04C0C2
:105860001082118212821382D6011A962D913D91D7
:105870004D915C911D9729833A834B835C8357FF3D
:1058800031C07301B6E4EB0EF11CCA01B90124E08A
:1058900030E040E050E00E944A36F701808191817B
:1058A000A281B381821B930BA40BB50B80839183E0
:1058B000A283B383F50143815481658176814817C2
:1058C00059076A077B0774F4D3019B96ED91FC910D
:1058D00083819481019694838383F70110821182DE
:1058E00012821382D6011A964D915D916D917C9131
:1058F0001D9712968C911297F50180AC91ACA2ACD9
:10590000B3AC84169506A606B7060CF098C08111B4
:1059100065C081E012968C93D3019B96ED90FC902C
:105920000E94FB0AF701658776878787908BD301F2
:105930009996AD90BC909A97F50142855385648500
:10594000758597962D913C91CA0157FF04C0882711
:105950009927841B950B092E000CAA0BBB0BF90190
:10596000C0ACD1ACE2ACF3ACC816D906EA06FB0673
:10597000B0F477FD08C082A9882329F0D5011296DA
:105980008C91823061F0F301E3A4F4A40E94FB0A3D
:10599000D70119966D937D938D939C931C971F73DC
:1059A00029F4D3019996ED91FC91108240E860E0D2
:1059B000C30126960FB6F894DEBF0FBECDBFDF91B0
:1059C000CF911F91FF90EF90DF90CF90BF90AF905D
:1059D0009F908F907F906F900C949124813009F06C
:1059E000A6CF0E94FB0A69837A838B839C83D301B1
:1059F0009B96ED91FC9185859685A785B089298137
:105A00003A814B815C81281B390B4A0B5B0BDA0115
:105A1000C90181369A4EA105B10508F488CFD3019A
:105A20009996ED91FC919A9782E082839B96ED91F5
:105A3000FC918581968101969683858378CF82300B
:105A400031F44A305105610571050CF070CFF60153
:105A500012826DCF26960FB6F894DEBF0FBECDBF73
:105A6000DF91CF911F91FF90EF90DF90CF90BF908B
:105A7000AF909F908F907F906F900895CF92DF921C
:105A8000EF92FF921F93CF93DF9300D000D000D00E
:105A9000CDB7DEB78D839E83AD81BE819996ED91A2
:105AA000FC919A978081A65BBF4F7D01811104C054
:105AB0008C91882309F46BC160E08D819E81F4D9BB
:105AC000182F87FF12C0AD81BE819796ED91FC9192
:105AD00098978081882331F060E0CD016FD66DE525
